{"abi":[{"type":"constructor","inputs":[{"name":"_challengeAddress","type":"address","internalType":"address"}],"stateMutability":"nonpayable"},{"type":"function","name":"challenge","inputs":[],"outputs":[{"name":"","type":"address","internalType":"contract ISecret"}],"stateMutability":"view"},{"type":"function","name":"solve","inputs":[],"outputs":[],"stateMutability":"payable"}],"bytecode":{"object":"0x60a060405234801561000f575f5ffd5b506040516105fe3803806105fe833981810160405281019061003191906100c9565b8073ffffffffffffffffffffffffffffffffffffffff1660808173ffffffffffffffffffffffffffffffffffffffff1681525050506100f4565b5f5ffd5b5f73ffffffffffffffffffffffffffffffffffffffff82169050919050565b5f6100988261006f565b9050919050565b6100a88161008e565b81146100b2575f5ffd5b50565b5f815190506100c38161009f565b92915050565b5f602082840312156100de576100dd61006b565b5b5f6100eb848285016100b5565b91505092915050565b6080516104e56101195f395f818160630152818161011101526101a701526104e55ff3fe608060405260043610610028575f3560e01c8063890d69081461002c578063d2ef739814610036575b5f5ffd5b610034610060565b005b348015610041575f5ffd5b5061004a6101a5565b6040516100579190610243565b60405180910390f35b5f7f000000000000000000000000000000000000000000000000000000000000000073ffffffffffffffffffffffffffffffffffffffff1663ba59eed76040518163ffffffff1660e01b81526004015f60405180830381865afa1580156100c9573d5f5f3e3d5ffd5b505050506040513d5f823e3d601f19601f820116820180604052508101906100f191906103a9565b90505f6040518060600160405280603881526020016104786038913990507f000000000000000000000000000000000000000000000000000000000000000073ffffffffffffffffffffffffffffffffffffffff1663a48b371b6706f05b59d3b2000083856040518463ffffffff1660e01b8152600401610173929190610442565b5f604051808303818588803b15801561018a575f5ffd5b505af115801561019c573d5f5f3e3d5ffd5b50505050505050565b7f000000000000000000000000000000000000000000000000000000000000000081565b5f73ffffffffffffffffffffffffffffffffffffffff82169050919050565b5f819050919050565b5f61020b610206610201846101c9565b6101e8565b6101c9565b9050919050565b5f61021c826101f1565b9050919050565b5f61022d82610212565b9050919050565b61023d81610223565b82525050565b5f6020820190506102565f830184610234565b92915050565b5f604051905090565b5f5ffd5b5f5ffd5b5f5ffd5b5f5ffd5b5f601f19601f8301169050919050565b7f4e487b71000000000000000000000000000000000000000000000000000000005f52604160045260245ffd5b6102bb82610275565b810181811067ffffffffffffffff821117156102da576102d9610285565b5b80604052505050565b5f6102ec61025c565b90506102f882826102b2565b919050565b5f67ffffffffffffffff82111561031757610316610285565b5b61032082610275565b9050602081019050919050565b8281835e5f83830152505050565b5f61034d610348846102fd565b6102e3565b90508281526020810184848401111561036957610368610271565b5b61037484828561032d565b509392505050565b5f82601f8301126103905761038f61026d565b5b81516103a084826020860161033b565b91505092915050565b5f602082840312156103be576103bd610265565b5b5f82015167ffffffffffffffff8111156103db576103da610269565b5b6103e78482850161037c565b91505092915050565b5f81519050919050565b5f82825260208201905092915050565b5f610414826103f0565b61041e81856103fa565b935061042e81856020860161032d565b61043781610275565b840191505092915050565b5f6040820190508181035f83015261045a818561040a565b9050818103602083015261046e818461040a565b9050939250505056fe43616e2069206a6f696e20434f4d50464553542031373f2048657265206973206d7920736563726574206e756d6265723a20313938353134a2646970667358221220275d1f56e421dd5efdecf8ad7cdb214884affb6097d631b535d2334655a53d6264736f6c634300081e0033","linkReferences":{}},"methodIdentifiers":{"challenge()":"d2ef7398","solve()":"890d6908"},"id":16}